:100000000C94C0010C94E8010C94E8010C94E801F4
:100010000C94E8010C94E8010C94E8010C94E801BC
:100020000C94E8010C94E8010C94E8010C94E801AC
:100030000C94E8010C94E8010C94E8010C94E8019C
:100040000C94E5050C94E8010C94D8040C94B204CB
:100050000C94E8010C94E8010C94E8010C94E8017C
:100060000C94CA060C94E8014D6574686F643A20DC
:1000700062745265736574436C69636B004D65749B
:10008000686F643A20526573657420566172004D42
:100090006574686F643A2067726176614469737051
:1000A00061726F73004D6574686F643A2073657494
:1000B000486F7261004D6574686F643A20676574BB
:1000C000486F72610074656C61486F72614174754C
:1000D000616C20427574746F6E2053454C007465DA
:1000E0006C61486F7261417475616C496E6974002E
:1000F0004D6574686F643A2074656C61486F726115
:10010000417475616C0000000000240027002A0083
:1001100000000000250028002B0000000000230044
:100120002600290004040404040404040202020258
:1001300002020303030303030102040810204080AA
:100140000102040810200102040810200000000829
:10015000000201000003040700000000000000008E
:100160004D6574686F643A206C65446973706172A0
:100170006F7300434F4E4649475552414E444F20FE
:100180004C4344004C454E444F20454550524F4D42
:1001900000494E494349414E444F0052455345544E
:1001A0002054454D504F004D6574686F643A20628D
:1001B00074526573657454656D706F436C69636BDD
:1001C000004D6574686F643A20627454656D706F99
:1001D00053656C656374436C69636B004D6574684B
:1001E0006F643A206F6E50617261646F00414C45DC
:1001F00052544120415449564F004D6574686F6414
:100200003A206F6E52756E6E696E670044495350A6
:1002100041524F205245474953545241444F004D9B
:100220006574686F643A206469737061726172000A
:100230004D6574686F643A206F6E416C657274002E
:100240005341424F544147454D004D6574686F64BA
:100250003A207361626F746172004D6574686F64F7
:100260003A206F6E5265736574004D6574686F64F3
:100270003A206F6E4469737061726F004D657468E7
:100280006F643A206F6E5361626F746167656D00D1
:10029000427574746F6E3A20004D6574686F643AED
:1002A00020676574427574746F6E004D6574686F75
:1002B000643A2074656C61417469766152656C6F53
:1002C00067696F004D6574686F643A2074656C618E
:1002D000486F7261496E6963696F004D6574686F3C
:1002E000643A2074656C61486F726146696D004DB7
:1002F0006574686F643A2074656C61566F6C7461E4
:1003000072004D6574686F643A20636F6E74615F4C
:100310006369636C6F004D6574686F643A20617443
:1003200075616C697A614C43445361626F746167B3
:10033000656D004D6574686F643A20617475616C19
:10034000697A6154656C61004D6574686F643A2028
:10035000636865636B486F726172696F003D3D3D14
:100360003D3D3D3D4E4557204C4F4F503D3D3D3D61
:100370003D3D3D3D3D3D3D3D3D3D3D3D00004D153F
:1003800011241FBECFEFD8E0DEBFCDBF12E0A0E04A
:10039000B1E0EAECF0E302C005900D92A030B107A5
:1003A000D9F723E0A0E0B2E001C01D92A63BB2075E
:1003B000E1F711E0C0ECD1E004C02197FE010E94FA
:1003C0005818CF3BD107C9F70E94640C0C946318EE
:1003D0000C940000CF92DF92EF92FF920F931F9345
:1003E000CF93DF936C017A018B01C0E0D0E0CE1592
:1003F000DF0589F0D8016D918D01D601ED91FC9159
:100400000190F081E02DC6010995892B11F47E0140
:1004100002C02196ECCFC701DF91CF911F910F91C0
:10042000FF90EF90DF90CF900895FC01538D448DA5
:10043000252F30E0842F90E0821B930B541710F08F
:10044000CF96089501970895FC01918D828D98179C
:1004500061F0828DDF01A80FB11D5D968C91928DA8
:100460009F5F9F73928F90E008958FEF9FEF0895A5
:10047000FC01918D828D981731F0828DE80FF11D6E
:10048000858D90E008958FEF9FEF0895FC01918D89
:10049000228D892F90E0805C9F4F821B91098F7382
:1004A0009927089584EF92E00E94460221E0892B6B
:1004B00009F420E0822F0895FC01848DDF01A80F4C
:1004C000B11DA35ABF4F2C91848D90E001968F737C
:1004D0009927848FA689B7892C93A089B1898C919B
:1004E00080648C93938D848D981306C00288F38961
:1004F000E02D80818F7D80830895EF92FF920F938E
:100500001F93CF93DF93EC0181E0888F9B8D8C8DBF
:10051000981305C0E889F989808185FD24C0F62EED
:100520000B8D10E00F5F1F4F0F731127E02E8C8D86
:10053000E8120CC00FB607FCFACFE889F989808170
:1005400085FFF5CFCE010E945C02F1CF8B8DFE01BD
:10055000E80FF11DE35AFF4FF0820B8FEA89FB8908
:100560008081806207C0EE89FF896083E889F9890C
:1005700080818064808381E090E0DF91CF911F9142
:100580000F91FF90EF900895CF93DF93EC01888D4A
:100590008823C9F0EA89FB89808185FD05C0A88987
:1005A000B9898C9186FD0FC00FB607FCF5CF80810D
:1005B00085FFF2CFA889B9898C9185FFEDCFCE0157
:1005C0000E945C02E7CFDF91CF91089580E090E038
:1005D000892B29F00E94520281110C940000089589
:1005E000833081F028F4813099F08230A1F00895B1
:1005F0008730A9F08830B9F08430D1F48091800040
:100600008F7D03C0809180008F7780938000089554
:1006100084B58F7702C084B58F7D84BD08958091A5
:10062000B0008F7703C08091B0008F7D8093B000C1
:1006300008953FB7F89480916D0290916E02A09159
:100640006F02B091700226B5A89B05C02F3F19F02C
:100650000196A11DB11D3FBFBA2FA92F982F882742
:10066000820F911DA11DB11DBC01CD0142E0660F9D
:10067000771F881F991F4A95D1F7089521E001C07F
:10068000220F6A95EAF7DC011C962C931C971A96A8
:100690005C934E931997ED91FC910484F585E02DC0
:1006A00060E00994DC01ED91FC910684F785E02D72
:1006B00041E0099581E090E008950895089585ED61
:1006C0008093BC008091BC0084FDFCCF1092CF02CF
:1006D000089540914302262F30E0240F311D21322E
:1006E0003105DCF42091CF022430C9F4FC0180E014
:1006F00090E0861758F4309143022191DC01AF5D00
:10070000BD4FA30FB11D2C930196F3CF80914302EF
:10071000680F6093430280E0089581E0089582E0CD
:1007200008950895E091720280917102E81730F403
:10073000F0E0EF5FFD4F808190E008958FEF9FEF35
:1007400008959091720280917102981750F4E92FE8
:10075000F0E0EF5FFD4F208130E09F5F90937202E9
:1007600002C02FEF3FEFC90108958091710290E020
:1007700020917202821B91090895CF92DF92EF922D
:10078000FF920F931F93CF93DF937C01262F972F18
:100790008A018091D002882391F0C62FD72F6E0155
:1007A000C40ED51ECC15DD0571F06991D701ED9110
:1007B000FC910190F081E02DC7010995F3CF642FE2
:1007C000822F0E946903C801DF91CF911F910F9181
:1007D000FF90EF90DF90CF900895CF93DF931F921B
:1007E000CDB7DEB769832091D0022223D1F02091CA
:1007F000F302203240F021E030E0FC013383228319
:1008000080E090E015C08091D102E82FF0E0EE5238
:10081000FD4F998190838F5F8093D1028093F30283
:1008200005C061E0CE0101960E94690381E090E07D
:100830000F90DF91CF910895089580E090E00895A2
:100840000E945E18FC0123812223B9F091819095CA
:1008500069236083828191E09093D0028093F202B9
:100860001092D1021092F30281E993E00E94ED030D
:100870000E94CB0B282F30E002C020E030E081E066
:1008800090E0232B11F080E090E00895EF92FF922A
:100890000F931F93CF938C01FC01759684E0C0E009
:1008A00060FF02C09081C92B6695815031968111FD
:1008B000F7CF413011F4F8014489F8018585C82B40
:1008C000C42B7801FEE0EF0EF11CF80162896C2B5D
:1008D000C7010E942204F801628960956C23C70158
:1008E000CF911F910F91FF90EF900C9422040F93E2
:1008F0001F93CF93DF93062F0F70423019F440E01F
:10090000602F10C0142F262FEC0130E0B90184E0D5
:10091000759567958A95E1F7CE010E944604412FAF
:10092000602FCE01DF91CF911F910F910C9446045F
:10093000FC0184858823A9F02185328521153105A4
:1009400019F4611106C007C02130310521F461118D
:1009500002C0858701C015866585CF010E960C946F
:10096000220408951F920F920FB60F9211242F9315
:100970003F934F935F936F937F938F939F93AF9327
:10098000BF93EF93FF9384EF92E00E945C02FF918C
:10099000EF91BF91AF919F918F917F916F915F91F7
:1009A0004F913F912F910F900FBE0F901F90189570
:1009B0001F920F920FB60F9211242F938F939F9334
:1009C000EF93FF93E0910403F09105038081E091A0
:1009D0000A03F0910B0382FD12C0908180910D03F8
:1009E0008F5F8F7320910E03821751F0E0910D03FA
:1009F000F0E0EC50FD4F958F80930D0301C0808196
:100A0000FF91EF919F918F912F910F900FBE0F90BB
:100A10001F901895CF93DF93282F30E0F901E45B06
:100A2000FE4F8491F901E85CFE4FD491F901EC5D31
:100A3000FE4FC491CC2391F081110E94F002EC2F63
:100A4000F0E0EE0FFF1FE65EFE4FA591B491EC9132
:100A5000ED2381E090E021F480E002C080E090E0AE
:100A6000DF91CF9108951F93CF93DF93282F30E02C
:100A7000F901E45BFE4F8491F901E85CFE4FD491EB
:100A8000F901EC5DFE4FC491CC23C9F0162F811102
:100A90000E94F002EC2FF0E0EE0FFF1FE05FFE4F30
:100AA000A591B4918FB7F894111105C09C91ED2FC9
:100AB000E095E92302C0EC91ED2BEC938FBFDF9121
:100AC000CF911F910895CF93DF9390E0FC01E85CF4
:100AD000FE4F2491FC01EC5DFE4F8491882361F16F
:100AE00090E0880F991FFC01EA5FFE4FC591D491F9
:100AF000FC01E05FFE4FA591B491611109C09FB761
:100B0000F8948881209582238883EC912E230BC052
:100B1000623061F49FB7F8943881822F80958323E7
:100B20008883EC912E2B2C939FBF06C08FB7F8942F
:100B3000E8812E2B28838FBFDF91CF9108958F926C
:100B40009F92AF92BF92CF92DF92EF92FF926B0192
:100B50007C010E9419034B015C01C114D104E10422
:100B6000F104F1F00E941903DC01CB018819990905
:100B7000AA09BB09883E9340A105B10570F321E0A5
:100B8000C21AD108E108F10888EE880E83E0981EA9
:100B9000A11CB11CC114D104E104F10419F7DDCF8B
:100BA000FF90EF90DF90CF90BF90AF909F908F908D
:100BB00008952FB7F8946091690270916A0280914C
:100BC0006B0290916C022FBF08951F920F920FB687
:100BD0000F9211242F933F938F939F93AF93BF93C3
:100BE0008091690290916A02A0916B02B0916C02AF
:100BF0003091680223E0230F2D3720F40196A11DC8
:100C0000B11D05C026E8230F0296A11DB11D20933A
:100C100068028093690290936A02A0936B02B0937A
:100C20006C0280916D0290916E02A0916F02B09162
:100C300070020196A11DB11D80936D0290936E020A
:100C4000A0936F02B0937002BF91AF919F918F916B
:100C50003F912F910F900FBE0F901F901895DC01C0
:100C6000ED91FC910684F785E02D40E0099461E068
:100C70000E942F068BE39FE10197F1F708950F93F0
:100C80001F93CF93DF93EC01423018F08C81886082
:100C90008C834F836887222329F0413019F48C819B
:100CA00084608C8364E670E080E090E00E949F05A1
:100CB0006C8164FD31C0E881F9810684F785E02DFF
:100CC00042E063E0CE0109958BE496E40197F1F7E9
:100CD000E881F9810684F785E02D42E063E0CE01EA
:100CE000099503E512E0C8010197F1F7E881F98160
:100CF0000684F785E02D42E063E0CE010995C80146
:100D00000197F1F7E881F9810684F785E02D42E04B
:100D100062E0CE01099517C06062CE010E942F06E5
:100D20008BE496E40197F1F76C816062CE010E943A
:100D30002F0603E512E0C8010197F1F76C816062AC
:100D4000CE010E942F06C8010197F1F76C81606205
:100D5000CE010E942F068BEE90E00197F1F784E020
:100D60008D836CE0CE010E942F06CE010E943706D3
:100D700082E08E8366E0CE010E942F06E881F98131
:100D80000484F585E02D6FEFCE01DF91CF911F91A7
:100D90000F9109941F920F920FB60F9211242F9367
:100DA0003F934F935F936F937F938F939F93AF93F3
:100DB000BF93EF93FF938091B900887F803609F449
:100DC0009CC068F5883209F45BC090F4803109F466
:100DD00054C038F4882309F4F6C0883009F44DC0B3
:100DE000F6C0883109F44CC0803209F45DC0EFC010
:100DF000803409F468C048F4803309F455C088335E
:100E000009F0E5C08093CD02D8C0803509F44FC009
:100E1000883509F45DC0883409F0D9C0D6C0883956
:100E200009F4C7C0A8F4883709F467C038F48836D5
:100E300009F463C0803709F460C0C9C0883809F478
:100E4000B8C0803909F45FC0803809F0C0C05BC009
:100E5000803B09F486C038F4803A09F466C0883AC9
:100E600009F47FC0B4C0803C09F4A7C0883C09F4F1
:100E7000A4C0883B09F48AC0AAC08091AA0210C00D
:100E80009091CC028091CB02981770F5E091CC0242
:100E900081E08E0F8093CC02F0E0E555FD4F80811C
:100EA0008093BB0085EC86C08093CD028EC0E0911C
:100EB000CC0281E08E0F8093CC028091BB00F0E0E9
:100EC000E555FD4F80839091CC028091CB026EC09E
:100ED000E091CC0281E08E0F8093CC028091BB0028
:100EE000F0E0E555FD4F80838091CE0281116DC009
:100EF00081E08093A90284EA61C083E08093CF02FD
:100F000010926702CFCF80916702803208F051C003
:100F1000E091670281E08E0F809367028091BB00B1
:100F2000F0E0E95BFD4F8083BDCF85EC8093BC0092
:100F30001092CF0280916702803230F4E091670214
:100F4000F0E0E95BFD4F10826091670270E0E09194
:100F50004502F091460287E492E0099510926702FB
:100F600036C084E08093CF02109244021092430274
:100F7000E0914102F0914202099580914302811172
:100F800005C081E08093430210922102E091440267
:100F900081E08E0F80934402F0E0EF5DFD4F808191
:100FA0008093BB009091440280914302981708F40B
:100FB00079CF85E88093BC000AC085EC8093BC00A3
:100FC0001092CF0204C01092CD020E945F03FF91E5
:100FD000EF91BF91AF919F918F917F916F915F91B1
:100FE0004F913F912F910F900FBE0F901F9018952A
:100FF0001092CF0281E08093CE021092A90261E0AC
:1010000082E10E94330561E083E10E943305E9EB50
:10101000F0E080818E7F808380818D7F808388E473
:101020008093B80085E48093BC000895FF920F93ED
:101030001F93CF93DF93EC01162F042FF22E8B8595
:10104000888B10927202109271021092D10210924B
:10105000F3020E94F807888991E09093D002809370
:10106000F2021092D1021092F3020E94CB0B91E097
:10107000811190E0998B992329F081E993E00E94F6
:10108000A1038E878989882339F01F861C8260E03E
:10109000CE010E960E9422042F2D402F612FCE01EB
:1010A000DF91CF911F910F91FF900C943F060C940C
:1010B000B4150C94AC150F931F93CF93DF9300D00E
:1010C00000D0CDB7DEB78B01AC01092E000C660B4A
:1010D000770B0A9764F484EF91E049835A836B831A
:1010E0007C830E94790B49815A816B817C818DE9D7
:1010F00093E00E94F80A8DEF91E00E94790BA8011D
:10110000012E000C660B770B0A30110564F484EF96
:1011100091E049835A836B837C830E94790B4981D8
:101120005A816B817C818DE993E00F900F900F9035
:101130000F90DF91CF911F910F910C94F80ACF93EC
:10114000DF9385EB90E00E94E80A81E08093D00273
:1011500088E68093F2021092D1021092F30260E0CE
:1011600081E993E00E94ED030E94CB0B8091CF02B6
:101170008111FCCF81E08093CF028093CE029FEF5C
:101180009093CD021092CC0296E09093CB02809384
:10119000AA028091AA02806D8093AA028091A9027E
:1011A000813061F41092A9028091AA028093BB0061
:1011B0008091BC0083FDF8CF85EC01C085EE809363
:1011C000BC008091CF028130E1F38091CC02873066
:1011D00018F48091CC0201C087E0ABEAB2E021E0D4
:1011E00032E0F9019E2F921B981718F49D9191936C
:1011F000F9CF109272028093710281E993E00E940C
:10120000A10381E993E00E94A103C82F81E993E043
:101210000E94A103D82F81E993E00E94A10381E9F4
:1012200093E00E94A10381E993E00E94A10381E978
:1012300093E00E94A1038D2F8695869586958670F2
:10124000982F990F990F890FDF70D80F8D2F90E08D
:1012500090937C0280937B028C2F82958F70CF704D
:101260009AE0899FC00D11248C2F90E090937A0210
:1012700080937902DF91CF9108951F93CF93DF93ED
:10128000D82F162F85EA90E00E94E80A81E080932B
:10129000D00288E68093F2021092D1021092F302FB
:1012A00060E081E993E00E94ED0360E081E993E072
:1012B0000E94ED03CAE0812F6C2F0E942A18692F2B
:1012C00020E1829F600D112481E993E00E94ED03EB
:1012D0008D2F6C2F0E942A18692F20E1829F600DAC
:1012E000112481E993E00E94ED0360E081E993E03D
:1012F0000E94ED03DF91CF911F910C94CB0BCF9304
:1013000080EF90E00E94E80AC1E0C0937F028091E4
:10131000000281113AC08EED90E00E94E80A8DE94A
:1013200093E00E94370660E080E00E947E0B80E739
:1013300091E00E94790B61E084E00E947E0B609155
:10134000790270917A0280917B0290917C020E94D6
:101350005B0861E083E00E947E0B0E94C10BC0939A
:10136000000281E090E0909311018093100190932E
:101370007E0280937D0266E970E080E090E00E944A
:101380009F051092740210927302809173029091E3
:1013900074028130910569F410920002909311015A
:1013A0008093100182E090E090937E0280937D0212
:1013B00059C0029709F056C085EC90E00E94E80AF7
:1013C0008091100190911101019719F580917B0294
:1013D00090917C02873191052CF010927C02109242
:1013E0007B0205C0019690937C0280937B0261E0B2
:1013F00084E00E947E0B6091790270917A02809164
:101400007B0290917C020E945B0861E083E00E9475
:101410007E0B8091100190911101029719F5809136
:10142000790290917A028B3391052CF010927A0216
:101430001092790205C0019690937A028093790206
:1014400061E084E00E947E0B6091790270917A02E3
:1014500080917B0290917C020E945B0861E089E0B0
:101460000E947E0B8091730290917402039799F50C
:101470008091100190911101019759F482E090E060
:10148000909311018093100161E089E0CF910C9459
:101490007E0B0E94B80B8DE993E00E94370660E056
:1014A00080E00E947E0B6091790270917A028091B7
:1014B0007B0290917C020E943D098EE791E00E94A0
:1014C000790B68EC70E080E090E00E949F050E943C
:1014D0009F0810920002CF910895CF93DF931F923F
:1014E000CDB7DEB7682F8FE890E069830E94E80AE5
:1014F000698180E090E00F90DF91CF910C945708C4
:10150000CF93DF938DE790E00E94E80A1092780273
:1015100010927702109276021092750261E080E0DC
:101520000E947E0BC0E1D0E061E08DE993E00E9473
:1015300052032197C9F7DF91CF91089588E690E093
:101540000E94E80A81E090E09093830280938202F7
:10155000109281021092800280E090E00E946D0A59
:101560000C94800A6115710579F0FB01019000204F
:10157000E9F73197AF01461B570BDC01ED91FC9168
:101580000280F381E02D099480E090E008950F93AC
:101590001F93CF93DF938C01C0E0D0E0F801EC0FF4
:1015A000FD1F6491662371F0E091F402F091F50261
:1015B0000190F081E02D84EF92E00995892B11F0E4
:1015C0002196ECCFCE01DF91CF911F910F9108951D
:1015D000CF93DF930E94C70AEC016BE971E084EFBF
:1015E00092E00E94B20A8C0F9D1FDF91CF91089567
:1015F0004F925F926F927F928F929F92AF92BF9223
:10160000CF92DF92EF92FF920F931F93CF93DF93CE
:10161000CDB7DEB7A1970FB6F894DEBF0FBECDBF32
:101620008C016A017B0177FF2FC0DC01ED91FC91F9
:101630000190F081E02D6DE209955C0122273327AE
:10164000A9012C193D094E095F0919A2FE01B196A5
:101650007F019AE0492E512C612C712CCA01B901ED
:10166000A30192010E943618605DD7016E937D013F
:10167000211531054105510589F7BD01C8010E94B9
:10168000B20A8A0D9B1D1EC09A01AB0119A2FE0170
:10169000B1967F018AE0882E912CA12CB12CCA0131
:1016A000B901A50194010E943618605DD7016E93BF
:1016B0007D01211531054105510589F7BD01C8019D
:1016C0000E94B20AA1960FB6F894DEBF0FBECDBF3E
:1016D000DF91CF911F910F91FF90EF90DF90CF900E
:1016E000BF90AF909F908F907F906F905F904F9042
:1016F0000895BC018DE993E00C94B20ACF93DF9377
:10170000CDB7DEB728970FB6F894DEBF0FBECDBFBA
:101710001D8290E49E8324E12F8324E5288719828B
:101720009A8390E19B8390E59C839091A403691731
:1017300010F06FEF690F4091A503262F30E0FE01F6
:10174000E20FF31F403121F4943011F4918101C074
:101750009581682F690F60688DE993E028960FB630
:10176000F894DEBF0FBECDBFDF91CF910C942F0652
:10177000EDE9F3E065816E7F65836860CF010C94CD
:101780002F06EDE9F3E06581862F8160858369602E
:10179000CF010C942F062091F3029091F202213296
:1017A00008F04AC08091CF028111FCCF32E0309323
:1017B000CF0231E03093CE023FEF3093CD02109252
:1017C000CC022093CB02A2EDB2E04BEA52E0FA0148
:1017D0003E2F341B321718F43D913193F9CF1092FC
:1017E000AA022091AA02990F922B9093AA0290919B
:1017F000A902913061F41092A9029091AA029093EB
:10180000BB009091BC0093FDF8CF95EC01C095EE24
:101810009093BC009091CF029230E1F39091CD0271
:101820009F3F79F08091CD02803241F08091CD02CE
:10183000803331F084E005C081E003C082E001C064
:1018400083E01092D1021092F3021092D002089518
:10185000CF92DF92EF92FF920F931F93CF93DF937C
:101860001F92CDB7DEB7162F877028E0829FC00188
:101870001124682F60648DE993E079830E942F061C
:1018800083E790E00197F1F7C12E7981D72E860189
:10189000085F1F4F8BE9E82EF12CF60161916F0173
:1018A0008DE993E00E945203C7010197F1F7C0163A
:1018B000D10699F70F90DF91CF911F910F91FF9073
:1018C000EF90DF90CF900895789484B5826084BDC6
:1018D00084B5816084BD85B5826085BD85B5816034
:1018E00085BD80916E00816080936E0010928100B2
:1018F000809181008260809381008091810081606D
:10190000809381008091800081608093800080912D
:10191000B10084608093B1008091B00081608093B9
:10192000B00080917A00846080937A0080917A0080
:10193000826080937A0080917A00816080937A003F
:1019400080917A00806880937A001092C10081E9CA
:1019500091E00E94E80A62E083E00E94630562E091
:1019600084E00E94630562E085E00E94630562E016
:1019700089E00E94630562E08BE00E94630562E0FB
:101980008DE00E94630561E086E00E94630561E0EE
:1019900087E00E94630561E088E00E94630561E0E2
:1019A0008AE00E94630561E08CE00E94630560E0CC
:1019B00087E00E94330560E088E00E94330560E024
:1019C0008AE00E94330560E08CE00E94330584E8E1
:1019D00091E00E94E80A80E691E00E94E80A80E037
:1019E00090E00E94590890E09093810280938002D9
:1019F0008E3F910541F4109281021092800280E0A6
:101A000090E00E946D0A82E090E00E94590890E008
:101A1000909385028093840241974CF01092850246
:101A20001092840260E082E090E00E94570881E01A
:101A300090E09093830280938202E0918402F0917F
:101A40008502EE0FFF1FEA5EFE4F80819181909329
:101A50009F0280939E0283E791E00E94E80A20E0C3
:101A600042E060E18DE993E00E94160868E071E0D1
:101A700081E00E94280C60E071E082E00E94280C66
:101A800061E080E00E947E0B00E110E061E08DE902
:101A900093E00E94520301501109C1F710927202A3
:101AA000109271021092D1021092F3020E94F80774
:101AB0000E949F0880917B0290917C02489734F4A9
:101AC0008091790290917A02CC9744F06AE370E0B9
:101AD00085E190E00E943D090E949F0885E090E02A
:101AE0000E945908A82EB12CB0921501A0921401A1
:101AF00086E090E00E945908C82ED12CD092A40212
:101B0000C092A30287E090E00E945908E82EF12CD1
:101B1000F0921301E092120188E090E00E945908CF
:101B2000082F10E01093A2020093A10289E090E038
:101B30000E945908813019F48093A50202C01092C6
:101B4000A50228E1A216B10434F086E190E090935A
:101B500015018093140183E3C816D10424F0109278
:101B6000A4021092A30228E1E216F10434F086E008
:101B700090E090931301809312010333110524F038
:101B80001092A2021092A102E0910403F0910503C9
:101B900082E08083E0910003F09101031082E091E4
:101BA0000203F09103038FEC808310920C03E09109
:101BB0000803F091090386E08083E0910603F09129
:101BC0000703808180618083E0910603F091070321
:101BD000808188608083E0910603F0910703808113
:101BE00080688083E0910603F091070380818F7DF8
:101BF0008083C1E001E010E053E0C52ED12C64E009
:101C0000E62EF12C75E0A72EB12C8DE593E00E9415
:101C1000E80A8091820290918302039709F46DC0D3
:101C20008091A802811169C083E00E940A05892B76
:101C3000E1F487EA91E00E94E80A0E94800A0E948B
:101C4000D9056093860270938702809388029093EF
:101C50008902D0928302C092820260E086E00E94F4
:101C600033058BE991E00E94E80A84E00E940A05AE
:101C7000892B99F581EC91E00E94E80A8091840219
:101C8000909185028031910534F4019690938502FC
:101C90008093840204C010928502109284026091A5
:101CA000840282E090E00E945708E0918402F09163
:101CB0008502EE0FFF1FEA5EFE4F808191819093B7
:101CC0009F0280939E0210938302009382021092DF
:101CD0008102109280020E94800A85E00E940A051B
:101CE000892B11F40E949E0A89E00E940A05892B23
:101CF00021F4C093A8020E947F09809182029091F2
:101D00008302049709F052C08091A80281114EC04D
:101D10008CED91E00E94E80A8DE993E00E9437067D
:101D20000E94B80B60E080E00E947E0B87E891E0A3
:101D30000E94790B61E080E00E947E0B6091A3021B
:101D40007091A40280911401909115010E945B088A
:101D500087E991E00E94790B6091A1027091A20243
:101D600080911201909113010E945B086EEE72E067
:101D700080E090E00E949F058DE993E00E94370685
:101D800060E080E00E947E0B82E791E00E94790B88
:101D900061E084E00E947E0B6091790270917A028A
:101DA00080917B0290917C020E945B08809182026C
:101DB00090918302019711F58091A80281111EC0B4
:101DC0008AEF91E00E94E80A80919E0290919F0222
:101DD000019720917702309178022817390771F422
:101DE00061E086E00E94330582E090E090938302F8
:101DF000809382028DEE91E00E94E80A8091820237
:101E000090918302029709F044C08091A802811149
:101E100040C080E392E00E94E80A2091770230916E
:101E2000780280919E0290919F022817390789F5C8
:101E300010938302009382028FE192E00E94E80AED
:101E400060E086E00E94330561E087E00E94330590
:101E500061E08CE00E943305C093A6020E94D90580
:101E600060938A0270938B0280938C0290938D0210
:101E700080918002909181020196909381028093DB
:101E800080020E946D0A0E94800A8CE092E00E940B
:101E9000E80A8091820290918302039709F052C070
:101EA0008091A70281114EC08091A80281114AC081
:101EB0008AE592E00E94E80A83E00E940A058130E8
:101EC000910539F490938302809382020E94800AE4
:101ED00039C00E94D90540908602509087026090D8
:101EE00088027090890220E1420E27E2521E611C96
:101EF000711C461657066806790620F58AE492E0BA
:101F00000E94E80A61E088E00E94330561E08AE00F
:101F10000E94330561E086E00E943305C093A7026A
:101F20000E94D90560938E0270938F028093900275
:101F30009093910280E492E00E94E80A1093830259
:101F4000009382028091A602882339F18091A80231
:101F5000811123C08AE692E00E94E80A0E94D90516
:101F600040908A0250908B0260908C0270908D029B
:101F700028E8420E23E1521E611C711C46165706CA
:101F80006806790650F41092A60260E087E00E948D
:101F9000330560E08CE00E9433058091A70288231E
:101FA00009F441C08091A80281113DC08CE792E004
:101FB0000E94E80A61E086E00E94330583E00E9407
:101FC0000A0581309105A9F49093830280938202DF
:101FD0001092A70260E086E00E94330560E088E08E
:101FE0000E94330560E08AE00E9433050E94800A67
:101FF0001AC00E94D90540908E0250908F026090C6
:1020000090027090910220EC420E27E2521E29E0CD
:10201000621E711C461657066806790620F460E0B9
:1020200086E00E94330580918002909181028F3F6B
:10203000910534F08091A802811102C00E949E0A8D
:102040008091A802882309F47AC389E992E00E946A
:10205000E80A10927402109273020E94D90540900F
:102060009602509097026090980270909902DC015D
:10207000CB0184199509A609B709843F9140A105B0
:10208000B10538F10E94D9056093960270939702CA
:1020900080939802909399028BE00E940A05892B05
:1020A00031F482E090E0909374028093730289E0AF
:1020B0000E940A05892B21F4109374020093730285
:1020C0008DE00E940A05892B21F4D0927402C092FF
:1020D00073028091730290917402892B51F00E94D7
:1020E000D905609392027093930280939402909327
:1020F000950280E992E00E94C70A409173025091D4
:102100007402052E000C660B770B84EF92E00E94A0
:10211000F80A6BE971E084EF92E00E94B20A0E9433
:10212000D905409092025090930260909402709072
:102130009502DC01CB0184199509A609B709813103
:102140009742A105B10558F410927F0280917D025B
:1021500090917E020197F1F40E947F091BC01092BA
:102160007E0210927D0210927402109273021092FD
:10217000A80261E080E00E947E0B30E1832E912C6A
:1021800061E08DE993E00E94520381E0881A910892
:10219000B9F7DACF80917D0290917E02029709F023
:1021A0009CC080917F02811198C08BEA92E00E94CE
:1021B000E80AC0937F0280919A0281113AC08DE9AA
:1021C00093E00E9437060E94B80B60E080E00E9416
:1021D0007E0B8EE991E00E94790B61E083E00E9422
:1021E0007E0B89E090E00E945908813019F48093B9
:1021F000A50202C01092A5028091A502882319F0C1
:1022000089EA91E002C085EB91E00E94790BC093CE
:102210009A0282E090E090937E0280937D0266E9CC
:1022200070E080E090E00E949F051092740210928E
:10223000730280917302909174028130910539F498
:1022400010929A02D0927E02C0927D0219C002972B
:10225000B9F48091A502882349F01092A50261E0AB
:1022600083E00E947E0B85EB91E008C0C093A5023D
:1022700061E083E00E947E0B89EA91E00E94790B85
:102280008091730290917402039739F50E94B80B04
:102290008DE993E00E94370660E080E00E947E0BAB
:1022A0008091A502882311F061E005C0109383029C
:1022B0000093820260E089E090E00E9457088EE778
:1022C00091E00E94790B68EC70E080E090E00E9461
:1022D0009F050E949F0810929A0280907D02909024
:1022E0007E0223E08216910409F0DFC080917F0214
:1022F0008111DBC084EC92E00E94E80AC0937F0267
:1023000080919B02811131C08DE993E00E943706D4
:1023100060E080E00E947E0B80EC91E00E94790BEF
:1023200061E084E00E947E0B6091A3027091A402A0
:1023300080911401909115010E945B0861E083E097
:102340000E947E0B0E94C10BC0939B02109311014F
:102350000093100190927E0280927D0266E970E007
:1023600080E090E00E949F05A0C080917302909150
:1023700074028130910559F410929B0290931101DF
:1023800080931001F0927E02E0927D0255C0029788
:1023900009F052C08091100190911101019719F537
:1023A0008091140190911501873191052CF01092C4
:1023B00015011092140105C00196909315018093A8
:1023C000140161E084E00E947E0B6091A302709191
:1023D000A40280911401909115010E945B0861E0B4
:1023E00083E00E947E0B8091100190911101029771
:1023F00019F58091A3029091A4028B3391052CF0E2
:102400001092A4021092A30205C001969093A40218
:102410008093A30261E084E00E947E0B6091A3029E
:102420007091A40280911401909115010E945B08A3
:1024300061E089E00E947E0B8091730290917402AA
:10244000039799F58091100190911101019759F42A
:1024500082E090E0909311018093100161E089E0A7
:102460000E947E0B22C00E94B80B8DE993E00E946F
:10247000370660E080E00E947E0B6091140185E0E9
:1024800090E00E9457086091A30286E090E00E94CD
:1024900057088EE791E00E94790B68EC70E080E0CD
:1024A00090E00E949F0510929B0280907D02909088
:1024B0007E0284E08816910409F0E2C080917F02D8
:1024C0008111DEC08BED92E00E94E80AC0937F028A
:1024D00080919C02811134C08DE993E00E943706FF
:1024E00060E080E00E947E0B8FEC91E00E94790B0F
:1024F00061E084E00E947E0B6091A1027091A202D3
:1025000080911201909113010E945B0861E083E0C9
:102510000E947E0B0E94C10BC0939C02109311017C
:102520000093100190927E0280927D0266E970E035
:1025300080E090E00E949F05109274021092730256
:1025400080917302909174028130910559F4109238
:102550009C029093110180931001B0927E02A09290
:102560007D0255C0029709F052C0809110019091F0
:102570001101019719F58091120190911301873192
:1025800091052CF0109213011092120105C00196D2
:10259000909313018093120161E084E00E947E0B0E
:1025A0006091A1027091A202809112019091130199
:1025B0000E945B0861E083E00E947E0B8091100125
:1025C00090911101029719F58091A1029091A202B8
:1025D0008B3391052CF01092A2021092A10205C03B
:1025E00001969093A2028093A10261E084E00E9490
:1025F0007E0B6091A1027091A202809112019091D4
:1026000013010E945B0861E089E00E947E0B8091CB
:10261000730290917402039799F580911001909143
:102620001101019759F482E090E090931101809399
:10263000100161E089E00E947E0B22C00E94B80B6D
:102640008DE993E00E94370660E080E00E947E0BF7
:102650006091120187E090E00E9457086091A1020A
:1026600088E090E00E9457088EE791E00E94790B85
:1026700068EC70E080E090E00E949F0510929C0260
:1026800080907D0290907E0225E08216910409F0F0
:10269000E8C180917F028111E4C18FEE92E00E9437
:1026A000E80AC0937F0280919D0281111EC08DE9CE
:1026B00093E00E9437060E94B80B60E080E00E9421
:1026C0007E0B8BED91E00E94790BC0939D0290925E
:1026D0007E0280927D0266E970E080E090E00E94D8
:1026E0009F05109274021092730280917302909170
:1026F00074028130910539F410929D0290937E020C
:1027000080937D02AEC1039709F0ABC110927E02A7
:1027100010927D021092A80210929D0261E080E06A
:102720000E947E0B20E1822E912C61E08DE993E0E6
:102730000E94520381E0881A9108B9F792C18091F2
:10274000820290918302049709F4E5C082E093E04D
:102750000E94E80A8091750290917602803F91056F
:1027600071F48091770290917802019690937802AB
:1027700080937702109276021092750205C001963E
:1027800090937602809375028091A7028823B1F01E
:1027900086E193E00E94E80A8DE993E00E94370603
:1027A00061E08DE993E00E94980460E080E00E947F
:1027B0007E0B82EE91E00E94790BADC083E393E043
:1027C0000E94E80A60919E0270919F0280917702B8
:1027D000909178024B01881A990A61E08DE993E0A3
:1027E0000E94980460E080E00E947E0B80EF91E000
:1027F0000E94790B80919E0290919F020A9724F487
:1028000083EF91E00E94790B80919E0290919F024C
:102810000A978A35910520F484EF91E00E94790BA4
:1028200040919E0250919F02052E000C660B770B83
:102830008DE993E00E94F80A86EF91E00E94790BFF
:102840008CEF91E00E94790B80918002909181023F
:102850000A9724F483EF91E00E94790B8091800223
:10286000909181020A978A35910520F484EF91E0D6
:102870000E94790B4091800250918102052E000C3C
:10288000660B770B8DE993E00E94F80A61E080E027
:102890000E947E0BB401990C880B990B0E94D916EB
:1028A0002B013C0160919E0270919F02072E000C4B
:1028B000880B990B0E94D9169B01AC01C301B20190
:1028C0000E942F169B01AC0160E070E080E89FE35E
:1028D0000E94C21520E030E040E851E40E94BD179C
:1028E0000E9414170E94A1164B0161E080E00E9433
:1028F0007E0B66246394712C6814790464F489E96E
:1029000091E00E94790B61E0862D0E947E0B2FEFF3
:10291000621A720AF1CF8091A00260E0882359F018
:102920008FE00E947E0B62E08DE993E00E945203EB
:102930001092A0020BC08FE00E947E0B69E971E04B
:102940008DE993E00E94B20AC093A0028091A50293
:10295000882309F486C00E949F0888E493E00E94BF
:10296000E80A6091820270918302409114015091B3
:102970001501209112013091130180917B029091F9
:102980007C024217530764F4481759070CF072C0D1
:1029900082179307E4F4109383020093820217C016
:1029A00024173507DCF44817590724F4281739078A
:1029B0005CF406C0841795073CF48217930724F44F
:1029C0001093830200938202841795073CF4281722
:1029D000390724F4F0928302E0928202841795076B
:1029E00081F4E0917902F0917A024091A302509132
:1029F000A402E417F5070CF046C0F0928302E092BF
:102A0000820282179307D1F42091790230917A02E1
:102A10008091A1029091A20228173907CCF510935A
:102A200083020093820264307105D9F461E080E092
:102A30000E947E0B80E1882E912C0AC064307105C3
:102A400081F48091820290918302019751F4EECF3C
:102A500061E08DE993E00E94520381E0881A9108B9
:102A6000B9F76AEF70E080E090E00E949F050E9455
:102A7000E602CBC8841795070CF0B0CF82179307F6
:102A80000CF0ACCFA7CF1093830200938202B9CF92
:102A9000F0928302E0928202E4CFE4EFF2E013824C
:102AA000128288EE93E0A0E0B0E084839583A68351
:102AB000B7832CE331E03183208325EC30E0358788
:102AC000248724EC30E03787268720EC30E0318BF8
:102AD000208B21EC30E0338B228B22EC30E0358BE5
:102AE000248B26EC30E0378B268B118E128E138EC2
:102AF000148EE1E9F3E01382128284839583A68326
:102B0000B7838EE491E091838083EDE9F3E0138253
:102B1000128280E691E091838083108A8FEF87870D
:102B20001686118A87E28387148615861286118697
:102B300084E0828B82E0838B81E0848B80E1858BD3
:102B400080E2868B80E4878B80E8808F40E050E0D5
:102B500063E0CF010C943E03F999FECF92BD81BD95
:102B6000F89A992780B50895262FF999FECF1FBAB4
:102B700092BD81BD20BD0FB6F894FA9AF99A0FBEA6
:102B8000019608955058BB27AA270E94DA150C9485
:102B90006B170E945D1738F00E94641720F039F41B
:102BA0009F3F19F426F40C945A170EF4E095E7FBB6
:102BB0000C942B17E92F0E947C1758F3BA17620761
:102BC00073078407950720F079F4A6F50C94B617DF
:102BD0000EF4E0950B2EBA2FA02D0B01B901900138
:102BE0000C01CA01A0011124FF27591B99F0593F7C
:102BF00050F4503E68F11A16F040A22F232F342FC4
:102C00004427585FF3CF469537952795A795F04011
:102C10005395C9F77EF41F16BA0B620B730B840B26
:102C2000BAF09150A1F0FF0FBB1F661F771F881FDE
:102C3000C2F70EC0BA0F621F731F841F48F4879536
:102C400077956795B795F7959E3F08F0B0CF939528
:102C5000880F08F09927EE0F9795879508950E94A1
:102C600043160C946B170E94641758F00E945D176E
:102C700040F029F45F3F29F00C942B1751110C946C
:102C8000B7170C945A170E947C1768F39923B1F375
:102C9000552391F3951B550BBB27AA276217730782
:102CA000840738F09F5F5F4F220F331F441FAA1F16
:102CB000A9F335D00E2E3AF0E0E832D091505040D2
:102CC000E695001CCAF72BD0FE2F29D0660F771F80
:102CD000881FBB1F261737074807AB07B0E809F066
:102CE000BB0B802DBF01FF2793585F4F3AF09E3FEB
:102CF000510578F00C942B170C94B7175F3FE4F351
:102D0000983ED4F3869577956795B795F7959F5F2D
:102D1000C9F7880F911D9695879597F90895E1E079
:102D2000660F771F881FBB1F621773078407BA07D8
:102D300020F0621B730B840BBA0BEE1F88F7E09533
:102D400008950E94A8166894B1110C94B7170895BD
:102D50000E94841788F09F5798F0B92F9927B75190
:102D6000B0F0E1F0660F771F881F991F1AF0BA952F
:102D7000C9F714C0B13091F00E94B617B1E00895C0
:102D80000C94B617672F782F8827B85F39F0B93FB2
:102D9000CCF3869577956795B395D9F73EF49095E2
:102DA0008095709561957F4F8F4F9F4F0895E89460
:102DB00009C097FB3EF490958095709561957F4F83
:102DC0008F4F9F4F9923A9F0F92F96E9BB27939531
:102DD000F695879577956795B795F111F8CFFAF441
:102DE000BB0F11F460FF1BC06F5F7F4F8F4F9F4F72
:102DF00016C0882311F096E911C0772321F09EE8D0
:102E0000872F762F05C0662371F096E8862F70E035
:102E100060E02AF09A95660F771F881FDAF7880F0F
:102E20009695879597F908950E949E1790F09F3781
:102E300048F4911116F00C94B71760E070E080E848
:102E40009FEB089526F41B16611D711D811D0C94C6
:102E500031170C944C1797F99F6780E870E060E099
:102E60000895882371F4772321F09850872B762FCB
:102E700007C0662311F499270DC09051862B70E08E
:102E800060E02AF09A95660F771F881FDAF7880F9F
:102E90009695879597F908959F3F31F0915020F4CA
:102EA000879577956795B795880F911D9695879526
:102EB00097F908959FEF80EC089500240A94161660
:102EC000170618060906089500240A941216130618
:102ED000140605060895092E0394000C11F48823A6
:102EE00052F0BB0F40F4BF2B11F460FF04C06F5FC2
:102EF0007F4F8F4F9F4F089557FD9058440F551F98
:102F000059F05F3F71F04795880F97FB991F61F06B
:102F10009F3F79F087950895121613061406551FE2
:102F2000F2CF4695F1DF08C0161617061806991F4E
:102F3000F1CF869571056105089408950E94841764
:102F4000A0F0BEE7B91788F4BB279F3860F41616C7
:102F5000B11D672F782F8827985FF7CF86957795D3
:102F60006795B11D93959639C8F30895E894BB27EA
:102F700066277727CB0197F908950E94D0170C9404
:102F80006B170E945D1738F00E94641720F095239C
:102F900011F00C942B170C945A1711240C94B7179A
:102FA0000E947C1770F3959FC1F3950F50E0551F59
:102FB000629FF001729FBB27F00DB11D639FAA278E
:102FC000F00DB11DAA1F649F6627B00DA11D661FDD
:102FD000829F2227B00DA11D621F739FB00DA11DFE
:102FE000621F839FA00D611D221F749F3327A00DB8
:102FF000611D231F849F600D211D822F762F6A2F54
:1030000011249F5750409AF0F1F088234AF0EE0FB8
:10301000FF1FBB1F661F771F881F91505040A9F7E5
:103020009E3F510580F00C942B170C94B7175F3F0F
:10303000E4F3983ED4F3869577956795B795F79521
:10304000E7959F5FC1F7FE2B880F911D9695879599
:1030500097F90895991B79E004C0991F961708F015
:10306000961B881F7A95C9F780950895A1E21A2EBC
:10307000AA1BBB1BFD010DC0AA1FBB1FEE1FFF1F1C
:10308000A217B307E407F50720F0A21BB30BE40B6C
:10309000F50B661F771F881F991F1A9469F76095B3
:1030A0007095809590959B01AC01BD01CF0108956D
:1030B000EE0FFF1F0590F491E02D099481E090E060
:0A30C000F8940C946318F894FFCF05
:1030CA0000001B1F1F0E04001E1E1E1E1E1E1E1E9B
:1030DA0001000600160002000F001E002D003C0031
:1030EA004B005A006900780087009600A500B400DA
:1030FA00C300D200E100F000000000007D02EA01F6
:10310A001502C40246022402380200000000ED0340
:10311A00BD031D049103B503A1039203000000003F
:10312A005203EA011D041C0416083E03980477049E
:10313A00312D486F726120417475616C3A004752B3
:10314A00415641444F21005475726E6F20646520C8
:10315A0056696769613A00202D20000D0A00322D58
:10316A0052656C6F67696F3A002A2A415449564181
:10317A00444F2A2A004445534154495641444F007A
:10318A00332D486F726120496E6963696F3A003462
:10319A002D486F72612046696D3A00352D53616979
:1031AA0072002A2A5341424F544147454D2A2A0068
:1031BA00543A00303000204D696E2000443A000035
:107E0000112484B714BE81FFF0D085E080938100F7
:107E100082E08093C00088E18093C10086E0809377
:107E2000C20080E18093C4008EE0C9D0259A86E02C
:107E300020E33CEF91E0309385002093840096BBD3
:107E4000B09BFECF1D9AA8958150A9F7CC24DD24C4
:107E500088248394B5E0AB2EA1E19A2EF3E0BF2EE7
:107E6000A2D0813461F49FD0082FAFD0023811F036
:107E7000013811F484E001C083E08DD089C08234E0
:107E800011F484E103C0853419F485E0A6D080C0E4
:107E9000853579F488D0E82EFF2485D0082F10E0AE
:107EA000102F00270E291F29000F111F8ED06801E7
:107EB0006FC0863521F484E090D080E0DECF843638
:107EC00009F040C070D06FD0082F6DD080E0C81688
:107ED00080E7D80618F4F601B7BEE895C0E0D1E017
:107EE00062D089930C17E1F7F0E0CF16F0E7DF06D8
:107EF00018F0F601B7BEE89568D007B600FCFDCFD4
:107F0000A601A0E0B1E02C9130E011968C91119780
:107F100090E0982F8827822B932B1296FA010C0160
:107F200087BEE89511244E5F5F4FF1E0A038BF0790
:107F300051F7F601A7BEE89507B600FCFDCF97BE46
:107F4000E89526C08437B1F42ED02DD0F82E2BD052
:107F50003CD0F601EF2C8F010F5F1F4F84911BD097
:107F6000EA94F801C1F70894C11CD11CFA94CF0C13
:107F7000D11C0EC0853739F428D08EE10CD085E9AC
:107F80000AD08FE07ACF813511F488E018D01DD067
:107F900080E101D065CF982F8091C00085FFFCCF94
:107FA0009093C60008958091C00087FFFCCF809118
:107FB000C00084FD01C0A8958091C6000895E0E648
:107FC000F0E098E1908380830895EDDF803219F02E
:107FD00088E0F5DFFFCF84E1DECF1F93182FE3DFCA
:107FE0001150E9F7F2DF1F91089580E0E8DFEE27F6
:047FF000FF270994CA
:027FFE00040479
:0400000300007E007B
:00000001FF
